:020000040800F2
:10000000180A002089010008251F0008811C00082B
:10001000911E0008E30300083D23000800000000D3
:10002000000000000000000000000000291F000880
:10003000F103000800000000271F00082B1F000824
:10004000A3010008A3010008A3010008A301000800
:10005000A3010008A3010008A3010008A3010008F0
:10006000A3010008A3010008A3010008E50300089C
:10007000A3010008A3010008A3010008A3010008D0
:10008000A3010008A301000881030008A3010008E0
:10009000A3010008A3010008A3010008A3010008B0
:1000A000A3010008A3010008A3010008A3010008A0
:1000B000A91F0008A3010008A3010008A30100086C
:1000C000A3010008A3010008A3010008A301000880
:1000D000A301000819230008252300083123000884
:1000E000A3010008A3010008A301000800F002F822
:1000F00000F03AF80AA090E8000C82448344AAF188
:100100000107DA4501D100F02FF8AFF2090EBAE885
:100110000F0013F0010F18BFFB1A43F0010318473B
:100120002823000048230000103A24BF78C878C173
:10013000FAD8520724BF30C830C144BF04680C60ED
:10014000704700000023002400250026103A28BF35
:1001500078C1FBD8520728BF30C148BF0B60704739
:100160001FB51FBD10B510BD00F0D4F81146FFF744
:10017000F7FF02F0F5F800F0F2F803B4FFF7F2FF32
:1001800003BC00F0F7F80000094880470948004721
:10019000FEE7FEE7FEE7FEE7FEE7FEE7FEE7FEE737
:1001A000FEE7FEE704480549054A064B7047000094
:1001B000A71F0008ED00000818040020180A0020FE
:1001C000180600201806002030B505460B462A46C2
:1001D00013F8014B12F8010B08B1A042F8D01CB182
:1001E000002802D06D1CF1E7284630BD40EA01032B
:1001F000024630B59B0710D14FF0013400E008C231
:1002000008C91D1B9D4315EAC41FF8D013F0FF0158
:1002100002F8011B0DD01B0AF8E711F8013B002B77
:1002200002F8013B05D011F8013B002B02F8013B1D
:10023000F3D130BD10B5431C02E010F8011B71B1C1
:100240008107FAD14FF0013202C88C1A8C4314EAAC
:10025000C211F9D0C01A0A0603D0C01E10BDC01AC0
:1002600010BD0A0401D0801E10BD0902FCD0401E42
:1002700010BD4FF000020429C0F0128010F0030CF2
:1002800000F01B80CCF1040CBCF1020F18BF00F889
:10029000012BA8BF20F8022BA1EB0C0100F00DB838
:1002A0005FEAC17C24BF00F8012B00F8012B48BF96
:1002B00000F8012B70474FF0000200B5134694463A
:1002C0009646203922BFA0E80C50A0E80C50B1F1AE
:1002D0002001BFF4F7AF090728BFA0E80C5048BFC2
:1002E0000CC05DF804EB890028BF40F8042B08BF60
:1002F000704748BF20F8022B11F0804F18BF00F85C
:10030000012B7047704770477047000000487047E6
:10031000B40300207546FFF7F9FFAE4605006946B5
:10032000534620F00700854618B020B5FFF73AFF86
:10033000BDE820404FF000064FF000074FF00008E6
:100340004FF0000B21F00701AC46ACE8C009ACE867
:10035000C009ACE8C009ACE8C0098D46704710B5CB
:100360000446AFF300802046BDE81040FFF705BF0C
:100370007047000001491820ABBEFEE726000200CE
:10038000014800F0B8B800002002002070B5044613
:1003900000688168C943C90717D1816821F001014C
:1003A000816000F041FC05460AE000BF00F03CFC23
:1003B000401B022804D920688068C043C00706D0CB
:1003C00020688068C043C007F0D0002070BDA06ADC
:1003D00040F01000A062E06A40F00100E0620120FD
:1003E00070BDFEE7014800F045BA00005002002051
:1003F000704772B6FEE77047F8B50024009490F895
:1004000024202546012A12D0012280F824204A689F
:100410001F23072A0DD20668776B521E02EB820259
:1004200093409F430B6893401F43776319E002207A
:10043000F8BD06680D2A0AD2376BD21F02EB820282
:1004400093409F430B6893401F43376309E0F76A6B
:100450000D3A02EB820293409F430B6893401F4387
:10046000F7620A68072306680A2A0AD3F7680A3A75
:1004700002EB420293409F438B6893401F43F76017
:1004800008E0376902EB420293409F438B68934038
:100490001F4337610A68102A01D0112A20D1124B5C
:1004A00002689A4217D193681B0219D4936843F4E7
:1004B000000393600968102912D10C490C4A09689D
:1004C000B1FBF2F101EB8101490000E0491E00910E
:1004D0000029FBD104E0816A41F0200181620124FE
:1004E00080F824502046F8BD002401401C00002064
:1004F00040420F00704770B50446006806684568C2
:10050000A90625D5B10723D5A16AC90603D4A16AD6
:1005100041F40071A1628168C1F34241072910D101
:10052000217B71B9416821F020014160A06A20F46B
:100530008070A062A06AC00403D4A06A40F00100E9
:10054000A0622046FFF7D6FF21686FF01200086016
:1005500028062ED570072CD5A06AC00603D4A06A41
:1005600040F40050A06220688168C1F3023107297D
:1005700009D04168490515D48168C1F34241072972
:1005800010D1217B71B9416821F080014160A06ADE
:1005900020F48050A062A06AC00503D4A06A40F095
:1005A0000100A0622046FFF726FF21686FF00C00D3
:1005B000086068060CD5F0070AD0A06A40F48030C5
:1005C000A062204600F094F821686FF001000860F6
:1005D00070BD00002DE9F0414FF0000704003D46DA
:1005E0007ED0A06A002628B9E66284F824602046FE
:1005F00000F080F82046FFF7C9FEA16AC90600D4C2
:1006000020B1A06A40F01000A06269E0A16A21F464
:10061000885141F00201A1626268E169237B0A43CB
:1006200047EA43010A43A1684FF48077B94209D0F1
:10063000012907D05FF0000194F814C0BCF1010F4C
:1006400002D00AE03946F7E7F3B1A36A43F020038A
:10065000A362E36A43F00103E3622368D3F804C0B2
:100660002CF4694C4CEA010CC3F804C021688B6877
:10067000DFF870C003EA0C0313438B60A168B94232
:100680000BD0012909D00CE0DFF85CC0A3690CEBAA
:1006900043330B4343F40061DFE7218A0D05A5F5E1
:1006A00080152168CB6A23F470032B43CB62216849
:1006B00089680E4B1940914208D1E662A16A21F087
:1006C000020141F00101A162BDE8F081A06A20F0C1
:1006D000020040F01000A062E06A40F00100E06219
:1006E0000120F1E7FDF7E1FF00E0FFFFFE0E1FFF35
:1006F0007047000070B586B000260546009601964A
:100700000296039600681E49884237D11D498869C0
:1007100040F400708861886900F400700490886972
:1007200040F0040088618869694600F00400049084
:10073000E020009003200190134800F085F9144C4C
:100740001248C4E900068020C4E9026080002061EC
:10075000800060612020A061C001E061204600F0BF
:1007600033F908B1FFF745FE2C6200221146122032
:10077000656200F0C5FA122000F0B4FA06B070BD50
:10078000002401400010024000080140080002401F
:100790005002002010B590F821100022022905D047
:1007A0000421816380F82020012010BD01680B68BE
:1007B00023F00E030B6001680B6823F001030B604C
:1007C00090F84030C46B012101FA03F3636080F8B4
:1007D000211080F82020104610BD000010B590F8C0
:1007E00021100024022903D00421816301243DE06B
:1007F00001680A6822F00E020A6001680A6822F0A5
:1008000001020A601A4A0168914201D1012121E0E6
:10081000174A1432914201D110211BE0144A2832A8
:10082000914201D1891515E0114A3C32914201D122
:1008300089140FE00E4A5032914202D14FF48031B8
:1008400008E00B4A6432914202D14FF4801101E07A
:100850004FF08071064A083A5160012180F821105A
:10086000002180F82010416B01B18847204610BD5F
:10087000080002402DE9F05FC16B0C6801680B684D
:10088000D0F840C0042202FA0CF2494DDFF824A14E
:10089000494E4A4FDFF828B1DFF828E122422CD038
:1008A0005A072AD50A68920603D40A6822F004027D
:1008B0000A600168A94201D1042219E0514501D121
:1008C000402215E0B14202D14FF4806210E0B942FB
:1008D00002D14FF480420BE0594502D14FF48022FF
:1008E00006E0714502D14FF4800201E04FF08062D2
:1008F0002F4908394A60C16A3BE04FF0020808FA04
:100900000CF818EA040F4FF000094FF0010235D03F
:100910005FEA837832D50B689B0605D40B6823F019
:100920000A030B6080F821200168A94201D102224C
:1009300019E0514501D1202215E0B14202D14FF416
:10094000007210E0B94202D14FF400520BE0594559
:1009500002D14FF4003206E0714502D14FF400128B
:1009600001E04FF00072124908394A6080F8209087
:10097000816A00291AD0BDE8F05F0847082505FA0A
:100980000CF5254212D01B0710D50B6823F00E037F
:100990000B6090F84010C36B02FA01F1596082635A
:1009A00080F8212080F82090016BE2E7BDE8F09FFD
:1009B000080002401C000240300002404400024097
:1009C000580002406C00024030B528B308C81349F3
:1009D00014221944B1FBF2F18900C163104981630B
:1009E000022141771A6843F6F0718A43D0E9001476
:1009F0002143D0E902452C43214304692143446942
:100A0000214384692143114319600021416301227C
:100A100042770177084630BD012030BDF8FFFDBFA9
:100A20000000024070B5044600F0FEF80546601C68
:100A300002D004480078044400F0F6F8401BA042BD
:100A4000FAD370BD100000202DE9F84FDFF8B891FF
:100A50000024A9F1040B23460F2709F1040AABF186
:100A6000040EC9E00125A5402A40AA427DD1674E67
:100A7000D1F804C0ACEB0608B44532D014DCBCF1AC
:100A8000030F3AD009DCBCF1000F2AD0BCF1010FF2
:100A90001CD0BCF1020F31D11DE0BCF1110F17D0F9
:100AA000BCF1120F2AD119E0B8F5881F19D006DC65
:100AB000B8F5803F15D0B8F5801F1FD111E0B8F50B
:100AC000001F0ED0B8F5041F18D10AE0CB6815E05E
:100AD000CB681B1D12E0CB6808330FE0CB680C33EA
:100AE0000CE08B682BB1012B4FF0080303D045615C
:100AF00004E0042302E0056100E00023FF2A01D89E
:100B0000064601E000F104064FEA840501D9A5F18B
:100B10002005D6F8008007FA05FC28EA0C0803FA3D
:100B200005F548EA0508C6F800804D68ED0062D575
:100B3000374DAE6946F00106AE61AD6924F003069B
:100B400005F001050095334D06EB050CDCF8085067
:100B5000A607360F07FA06F825EA0805DFF8B88079
:100B6000404503D14FF0000817E044E0DFF8AC80C7
:100B7000404502D14FF001080FE0DFF8A480404566
:100B800002D14FF0020808E0DFF89880404502D11A
:100B90004FF0030801E04FF0040808FA06F848EAAD
:100BA0000508CCF808804D68D9F80060ED024D4684
:100BB00001D5164300E096432E604D68DAF80060D8
:100BC000AD02554601D5164300E096432E604D68B0
:100BD000DBF80060AD035D4601D5164300E09643A7
:100BE0002E604D68DEF80060ED03754601D51643B2
:100BF00000E096432E60641C0D682A46E5407FF4B1
:100C000031AFBDE8F88F000008040140000011106A
:100C1000001002400000014000080140000C0140AB
:100C20000010014000140140014880687047000036
:100C300010000020024881680278114481607047EA
:100C400010000020074810B5016841F01001016054
:100C5000032000F075F80F2000F006F800F024F8EB
:100C6000002010BD0020024070B50D4D04464FF429
:100C70007A712878B1FBF0F00A490968B1FBF0F00D
:100C800000F052FB48B9102C07D200222146501E1A
:100C900000F036F800206C6070BD012070BD0000CF
:100CA000100000201C0000200C4808B5816941F0AC
:100CB00001018161816901F001010091C16941F087
:100CC0008051C161C06900F08050009004484168C3
:100CD00021F0E06141F00071416008BD0010024068
:100CE00000000140002809DB00F01F0201219140B3
:100CF0004009800000F1E020C0F8001170470000BA
:100D0000F0B40E4B1B680C46C3F30223C3F1070576
:100D1000042D00D90425191D072901D2002300E064
:100D2000DB1E012606FA05F1491E214099409E402E
:100D3000761E16403143F0BC01F001BB0CED00E023
:100D4000064900F0070208684FF6FF03184040EA22
:100D50000220034A10430860704700000CED00E0D9
:100D60000000FA052DE9F84305460078354CC00728
:100D700054D0E0690026C00008D4E06940F08050FB
:100D8000E061E069012600F0805000902E48016883
:100D9000C90512D40168804641F480710160FFF7F3
:100DA00043FF074605E000BFFFF73EFFC01B642876
:100DB00023D8D8F80000C005F6D5206A10F440709A
:100DC00021D0A98801F4407181421CD0206A1F49BA
:100DD000012220F440700A6000220A602062C007ED
:100DE00011D0FFF721FF074641F2883808E000BF25
:100DF000FFF71AFFC11B414502D90320BDE8F88364
:100E0000206A8007F4D5206A696820F4407008439E
:100E100020621EB1E06920F08050E06128788007F0
:100E200005D56068A96820F44040084360602878D0
:100E3000C00605D56068E96820F48000084360605A
:100E40000020DBE7001002400070004040044242F6
:100E50002DE9F0470F46050061D0434E306800F0A1
:100E60000700B84209D2306820F0070038433060EC
:100E7000306800F00700B84251D128683B4C810728
:100E800012D5400703D5606840F4E06060602878C0
:100E9000000703D5606840F4605060606068A9682E
:100EA00020F0F000084360602878C00728D0686808
:100EB000012810D02168022810D0890700292EDAD5
:100EC000616821F0030101436160FFF7ADFE8046D8
:100ED00041F288390DE021688903EFE78901EDE7E8
:100EE000FFF7A2FEA0EB0801494502D90320BDE8A7
:100EF000F0876068696800F00C00B0EB810FEFD1FB
:100F0000306800F00700B8420BD9306820F00700C5
:100F100038433060306800F00700B84201D001204B
:100F2000E5E72878400705D56068E96820F4E060C7
:100F3000084360602878000706D56068296920F4B6
:100F4000605040EAC100606000F038F86168084A0B
:100F5000C1F30311515CC8400649086006480068A7
:100F6000FFF782FE0020C2E700200240001002408E
:100F70002E2400081C00002014000020044805490D
:100F800000684968044AC1F30221515CC8407047B7
:100F90001C000020001002403E24000804480549BF
:100FA00000684968044AC1F3C221515CC8407047D7
:100FB0001C000020001002403E2400080E4A516828
:100FC0000E4801F00C03042B11D0082B0FD10C4854
:100FD000C1F38343C903C05C0AD55168084AC1F311
:100FE0004041921E515C054A5043B0FBF1F07047FE
:100FF00004494843704700000010024000127A0084
:101000001E24000800093D002DE9F84F040070D0AF
:101010002078C04DC00749D06868C0F3810001281E
:1010200007D06868C0F38100022809D16868C0034E
:1010300006D52868800339D560680028E7D035E0F8
:101040006068B0F5803F0BD010B1B0F5A02F11D083
:10105000286820F480302860286820F4802002E08E
:10106000286840F480302860606890B1FFF7DCFDAC
:1010700006460AE0286840F480202860F0E700BFB8
:10108000FFF7D2FD801B642873D828688003F7D54A
:101090000CE0FFF7C9FD064605E000BFFFF7C4FD01
:1010A000801B6428F0D828688003F7D420789A4EF3
:1010B00080074FF001094FF0000839D5686810F03B
:1010C0000C0F07D06868C0F38100022809D1686856
:1010D000C00306D42868800714D52069012808D1E8
:1010E00010E02069B0B1C6F80090FFF79DFD0746FB
:1010F00005E00AE1FFF798FDC01B0228C4D8286864
:101100008007F7D52868616920F0F80040EAC1003F
:1011100028600DE0C6F80080FFF786FD074604E072
:10112000FFF782FDC01B022823D828688007F7D468
:10113000207800072CD57948A169D9B1C0F8009072
:10114000FFF772FD074604E0FFF76EFDC01B0228A3
:101150000FD8686A8007F7D571484FF4FA510068D4
:10116000B0FBF1F0009000BF0098411E0091FAD250
:101170000EE080E0C0F80080FFF756FD074604E06F
:10118000FFF752FDC01B022875D8686A8007F7D4A4
:101190002078400760D5E8690027C00008D4E869D6
:1011A00040F08050E861E869012700F0805000902D
:1011B0005C480168C90513D40168834641F4807115
:1011C0000160FFF731FD824606E000BFFFF72CFD0E
:1011D000A0EB0A0064284ED8DBF80000C005F5D566
:1011E000E06801280AD008B1052813D0286A20F049
:1011F00001002862286A20F0040002E0286A40F01A
:1012000001002862E06841F2883B98B1FFF70CFDCD
:1012100082460BE0286A40F004002862EEE700BF37
:10122000FFF702FDA0EB0A0159455AD8286A80074A
:10123000F6D50CE0FFF7F8FC824605E0FFF7F4FC7A
:10124000A0EB0A0159454CD8286A8007F6D41FB193
:10125000E86920F08050E861E06988B36968C1F30B
:101260008101022944D00228C6F8608004D0FFF72B
:10127000DBFC044638E034E0FFF7D6FC074604E028
:10128000FFF7D2FCC01B02282BD828688001F7D4B6
:10129000206AB0F5803F05D16868A16820F400306D
:1012A00008436860D4E908010843696821F47411AF
:1012B00008436860C6F86090FFF7B6FC044606E095
:1012C00025E000BFFFF7B0FC001B022809D8286802
:1012D0008001F7D51BE000BFFFF7A6FC001B02282A
:1012E00002D90320BDE8F88F28688001F4D40EE00D
:1012F0000128F7D06868226A00F48031914204D155
:10130000616A00F47010884201D00120EAE70020F1
:10131000E8E7000000100240000042428004424220
:101320001C0000200070004010B5401EB0F1807F0E
:1013300001D3012010BD4FF0E02460610F21601740
:1013400000F0FDFF0020A06107202061002010BDFB
:101350007047704770B590F83C20012A26D00124D0
:1013600080F83C40022280F83D2003685A689D685E
:1013700022F070060A6832435A600D4B02689A42A6
:1013800008D0B2F1804F05D00A4B9A4202D00A4BE6
:101390009A4204D1496825F080031943916080F88E
:1013A0003D40002180F83C10084670BD022070BD11
:1013B000002C0140000400400008004010B504006B
:1013C00003D094F83D0010B107E0012010BD0020CB
:1013D00084F83C00204600F01FF8022084F83D000D
:1013E000211D206800F0E6FD012084F8460084F805
:1013F0003E0084F83F0084F8400084F8410084F8FF
:10140000420084F8430084F8440084F8450084F8DE
:101410003D00002010BD000008B50068B0F1804F0D
:1014200012D10A48C16941F00101C161C0690022BD
:1014300000F00100009011461C20FFF761FCBDE8A0
:1014400008401C20FFF74EBC08BD00000010024001
:1014500070B5044690F83C000025012817D00126FD
:1014600084F83C60022084F83D002068826822F005
:10147000770222F47F4282600868502838D00DDC61
:1014800020284FD005DC90B3102811D14AE002206B
:1014900070BD302846D040280AD13BE060282FD0CC
:1014A00070280DD0B0F5805F03D0B0F5005F12D08A
:1014B000012584F83D60002084F83C00284670BD7A
:1014C000CB68D1E90121206800F0B0FD2068816877
:1014D00041F0770109E0CB68D1E90121206800F0F3
:1014E000A5FD2068816841F480418160E1E719E051
:1014F000CA684968206800F0ABFD5021206806E00A
:10150000CA684968206800F0B4FD6021206800F0D6
:1015100097FDCEE7CA684968206800F099FD402130
:101520002068F4E7226801461046F0E770472DE98D
:10153000F04104460068C66805694FF00007A90736
:1015400013D5B10711D5F91E01610120207720685C
:1015500080698007204602D0FFF7E8FF04E000F032
:101560007EF8204600F07CF82777680716D57007CC
:1015700014D521686FF004000861022020772068EC
:10158000806910F4407F204602D0FFF7CFFF04E0CF
:1015900000F065F8204600F063F82777280715D596
:1015A000300713D521686FF0080008610420207708
:1015B0002068C0698007204602D0FFF7B7FF04E02B
:1015C00000F04DF8204600F04BF82777E80616D5D6
:1015D000F00614D521686FF010000861082020770C
:1015E0002068C06910F4407F204602D0FFF79EFFBC
:1015F00004E000F034F8204600F032F82777E807DE
:1016000008D0F00706D021686FF00100086120467D
:1016100000F028F8280608D5300606D521686FF0B6
:10162000800008612046FFF793FE680608D5700623
:1016300006D521686FF040000861204600F048F8A8
:10164000A8060AD5B00608D521686FF02000086109
:101650002046BDE8F041FFF77CBEBDE8F081704751
:101660007047000010B50068B0F1804F27D114A07A
:1016700000F0C4FEFFF7D8FA134CE0600020607061
:1016800012A000F01BFC08B90120607060780028EF
:1016900015D1FFF7C9FAE168401A4EF66021884279
:1016A0000DD300F09BFE41F28830FFF7BBF900F04C
:1016B00025FC00F001FCBDE8104000F01DBC10BD91
:1016C00041540D0A00000000000000204F4B0000B4
:1016D0007047704770470000F8B501680446086815
:1016E000CA684B6910F00F0F4FF0000559D003F096
:1016F000010602F49077374365D0C10705D0D105C4
:1017000003D5616C41F001016164410705D5D9073A
:1017100003D0616C41F002016164810705D5D907EE
:1017200003D0616C41F004016164010707D502F048
:101730002001314303D0616C41F008016164616CA8
:1017400000293AD0800604D5900602D5204600F044
:10175000D1FC20684069616CC0F38010090700D497
:1017600060B3204600F09FFC20684069400621D508
:101770002068143050E8001F21F0400140E80012BA
:10178000002AF5D1E06BA8B16D494163E06BFFF72A
:1017900025F8002811D0E06B416B01B0BDE8F040A6
:1017A000084783060FD593060DD52046BDE8F840BF
:1017B00000F0A0BC2046FFF78DFFF8BD2046FFF7E4
:1017C00089FF6564F8BD266B2023012E7CD1C606F7
:1017D0007AD5D60678D508684868009048694FF0F1
:1017E0000206400640D5E16B086840680004000C22
:1017F000E8D0A28D8242E5D9E085886920282DD0E5
:1018000020680C3050E8001F21F4807140E800127D
:10181000002AF5D12068143050E8001F21F00101A2
:1018200040E80012002AF5D12068143050E8001F6B
:1018300021F0400140E80012002AF5D184F842303E
:10184000256320680C3050E8001F21F0100140E8AB
:101850000012002AF5D1E06BFEF79CFF6663A08DB5
:10186000E18D401A81B22AE0A08DE18D401A81B24B
:10187000E08D0028A6D00029A4D022680C3252E8BE
:10188000000F20F4907042E80007002FF5D1206887
:10189000143050E8002F22F0010240E80027002F0A
:1018A000F5D184F84230256320680C3050E8002FD1
:1018B00022F0100240E80023002BF5D16663204699
:1018C000FFF707FFF8BDFFE705062BD5150629D55D
:1018D00094F841002128F5D1A068B0F5805F01D1CE
:1018E0002069B0B1206A411C2162216800784860FB
:1018F000E08C401E0004000CE084E3D12068C16845
:1019000021F08001C1602068C16841F04001C160E0
:10191000D8E7206A0088C0F308004860206A801C6D
:101920002062E5E74006CDD55006CBD5CA682046F3
:1019300022F04002CA6084F8413000F0A0F9C1E70B
:101940009720000870B5040004D094F841000025E9
:1019500010B106E0012070BD84F84050204600F030
:1019600023F8242084F841002068C16821F4005144
:10197000C160204600F020FC2068016921F49041FC
:1019800001612068416921F02A0141612068C16834
:1019900041F40051C1606564202084F8410084F85E
:1019A00042006563002070BDF0B585B0002400944E
:1019B0000194029403940368424F02204249032297
:1019C000424D4602BB4225D18B6943F480438B6173
:1019D0008B6903F4804304938B6943F004038B61A8
:1019E0008969039201F0040104910102CDE900101C
:1019F00069462846FFF728F8CDE90064694628467D
:101A00000294FFF721F8002211462520FFF778F90C
:101A1000252028E02E4FBB4229D1CB6943F4003367
:101A2000CB61CB6903F4003304938B6943F0040367
:101A30008B618969039201F0040104910421CDE9CD
:101A4000001069462846FEF7FFFF0820CDE9000494
:101A5000694628460294FEF7F7FF00221146262029
:101A6000FFF74EF92620FFF73DF905B0F0BD194DFF
:101A7000AB42FAD1CB6943F48023CB61CB6903F449
:101A8000802304938B6943F008038B618969124DAD
:101A900001F00801CDE90321CDE90060694628463F
:101AA000FEF7D2FFE814CDE9000469462846029407
:101AB000FEF7CAFF002211462720FFF721F9272051
:101AC000D1E700000038014000100240000801404A
:101AD0000044004000480040000C014090F84230B3
:101AE000202B01D00220704721B11AB100230363DB
:101AF00000F0BEBB012070472DE9F04106462149A8
:101B0000006800258F15204C884223D12078FF28BB
:101B10000CD3257039461D48FEF7ABFB4FF6FF731B
:101B20000A221BA11D4800F041F80DE01749A278D8
:101B30000A54401CC0B22070084410F8010C0A2856
:101B400002D10120207125700F490122891C134800
:101B5000FFF7C4FF12493068884211D1E08800269F
:101B600028B1E58001220F490F48FFF7B7FF0D4963
:101B700020890E54401C80B22081FF2800D9278183
:101B8000BDE8F08100480040000000202000002057
:101B9000CAFDBEDDD2E7B3F6000000006C030020F2
:101BA0000038014020010020DC0200202DE9F8432C
:101BB000044690F84100984616460D46202802D06B
:101BC0000220BDE8F88385B17EB100206064212049
:101BD00084F84100FFF728F8A6848146E684A068CF
:101BE0002027B0F5805F02D003E00120E9E72069FB
:101BF00010B12E4600250EE000260CE08021204684
:101C000000F051FBA8B9C6B116F8010B2168486075
:101C1000E08C401EE084E08C4B464FF00002CDF893
:101C200000800028EAD14FF04001204600F03BFB45
:101C300040B184F841700320C3E735F8020BC0F3CC
:101C40000800E3E784F841700020BAE790F84130DB
:101C5000202B01D00220704779B172B101628284D9
:101C6000C28400214164212180F841100068C168CC
:101C700041F08001C160002070470120704770472B
:101C8000FEE700003EB500211B4800910191194A72
:101C9000029102609215826001240473017503258C
:101CA0004FF460220561C2614160FEF793FC08B108
:101CB000FEF79FFB0520CDE900040720029069464E
:101CC0000D48FEF799FB08B1FEF793FB0220019047
:101CD00069460948FEF790FB08B1FEF78AFB6946A2
:101CE00005480195FEF788FB002801D0FEF781FB2F
:101CF0003EBD00000024014020020020094808B534
:101D0000416941F0010141614069002200F0010098
:101D1000009011460B20FEF7F3FFBDE808400B20B2
:101D2000FEF7E0BF00100240114808B5816941F09C
:101D300010018161816901F010010091816941F018
:101D400020018161816901F020010091816941F0E8
:101D500004018161816901F004010091816941F010
:101D600008018161806900F00800009008BD000052
:101D70000010024010B586B000241748009401946A
:101D80000294039404944FF080410594016041F65D
:101D90001F41C0E9011440F2E731C0E90314846136
:101DA000FFF70CFB08B1FEF724FB4FF480500090C6
:101DB00069460948FFF74CFB08B1FEF71AFB04948B
:101DC00004A905480594FFF7C5FA002801D0FEF7DD
:101DD00010FB06B010BD0000940200200C4810B5A6
:101DE0000A4901604FF416514160002181600C22C4
:101DF000C160C0E904128161C161FFF7A3FD002841
:101E000003D0BDE81040FEF7F4BA10BD0038014021
:101E1000DC0200200C4810B50A4901604FF416514D
:101E20004160002181600C22C160C0E9041281611F
:101E3000C161FFF787FD002803D0BDE81040FEF721
:101E4000D8BA10BD00440040240300200E4810B54D
:101E50000C4901604FF416514160002181600C2251
:101E6000C160C0E904128161C161FFF76BFD08B177
:101E7000FEF7BFFABDE81040012204490248FFF70F
:101E80002DBE0000004800406C030020020000202E
:101E9000FEE710B500F0A2FA6420FEF7C3FD00F0E3
:101EA0002DF86420FEF7BEFD6420FEF7BBFDBDE803
:101EB00010406420FEF7B6BD7047000010B5044620
:101EC0006420FEF7AFFD21460A48FEF77DF90028A1
:101ED000084807D0FEF7AEF901460648FEF7C9F9F3
:101EE000012010BDFEF7A6F901460248FEF7C1F930
:101EF000002010BD200000207047000010B506A093
:101F000000F07CFA6420FEF78DFD05A0FFF7D6FFF8
:101F1000012800D0002010BD41540D0A000000002F
:101F20004F4B0000FEE770477047FEF783BE30B5A9
:101F300093B028216846FEF7BEF914210AA8FEF7DF
:101F4000BAF9002501200F951095119501041295FD
:101F50008DE8230004904FF4E010CDE9081002242E
:101F600007946846FFF750F808B172B6FEE70AA971
:101F70000F2081E831004FF48060CDE90D0502218A
:101F80000AA8FEF765FF08B172B6FEE74FF40040FD
:101F900011900F940FA8FEF7E5FE002801D072B64D
:101FA000FEE713B030BD70470148FFF7C0BA00002C
:101FB00094020020F0B50268194B1A4C1A4D4FF0EC
:101FC0008047984205D0B84203D0A04201D0A84231
:101FD00003D122F070064A683243984205D0B842D5
:101FE00003D0A04201D0A84203D122F44074CA68B1
:101FF00022434C6922F08002224302608A68C26256
:102000000A688262984201D1096901630121416134
:102010000169C90703D0016921F001010161F0BD27
:10202000002C0140000400400008004010B5846806
:1020300042EA032224F47F440A432243826010BD13
:10204000826822F070020A4342F007018160704703
:1020500010B5036A046A24F001040462846924F060
:10206000F00444EA021423F00A020A438461026283
:1020700010BD10B5036A046A24F010040462846978
:1020800023F0A00324F4704444EA023243EA01112D
:102090008261016210BD10B5406A0021C185C18412
:1020A000FFF718FB10BD01680C3151E8002F22F436
:1020B000907241E80023002BF5D10168143151E8FA
:1020C000002F22F0010241E80023002BF5D1016B23
:1020D000012909D101680C3151E8002F22F01002CA
:1020E00041E80023002BF5D1202180F84210002187
:1020F0000163704708B590F84210222901D00220F0
:1021000008BD82684FF480539A4201D1016921B120
:10211000816A9A421BD04AB10AE00268816A526819
:10212000C2F308020A80816A891C08E0026972B160
:102130000268526802F07F020A70816A491C81625B
:10214000C18D491E0904090CC18503D01BE002683A
:102150005268F1E70168CA6822F02002CA6001688B
:10216000CA6822F48072CA6001684A6922F00102DA
:102170004A61202180F8421000214163026B012A4C
:1021800003D0FFF7B9FC002008BD016301680C31E2
:1021900051E8002F22F0100241E80023002BF5D176
:1021A00001680A68D20602D50A6849680091818DE3
:1021B000FFF78FFAE7E7000070B504460068016991
:1021C000E26821F44051114301612169A06808438C
:1021D000616908432168CA6841F20C639A4302436B
:1021E000CA6020684169A26921F4407111434161CC
:1021F0001E492068884202D1FEF7D0FE01E0FEF7BA
:10220000BDFE00EBC00101EB00126068642180009C
:10221000B2FBF0F3B3FBF1F36FF018067343B2FBBC
:10222000F0F5B2FBF0F605EB8305322303EB051561
:10223000B5FBF1F5B6FBF1F605F0F00505EB06157B
:10224000B2FBF0F6B2FBF0F0B0FBF1F06FF0180269
:10225000504306EB800003EB0010B0FBF1F0216867
:1022600000F00F002844886070BD00000038014075
:1022700081628285C28500214164222180F842105A
:10228000016921B10168CA6842F48072CA600168BC
:102290004A6942F001024A610068C16841F02001C8
:1022A000C160002070472DE9F843984617460D4657
:1022B0000446089E24E0701C22D0FEF7B5FCA0EB7B
:1022C0000800B0421AD8CEB12068C168490717D5B6
:1022D000802D15D0402D13D00168C94309070FD4B4
:1022E00001680025406800902046FFF7DCFE0820CA
:1022F000606484F840500120BDE8F8830320FBE7C8
:102300002068006835EA000004D00020B842D2D02E
:102310000020F1E70120F9E70148FFF7DDB90000EF
:10232000DC0200200148FFF7D7B900002403002099
:102330000148FFF7D1B900006C030020FEE7090750
:10234000090E002804DB00F1E02080F8001470473B
:1023500000F00F0000F1E02080F8141D704700002D
:10236000FEF770FCFFF7E3FDFFF7DEFCFFF7C6FCAE
:10237000FFF788FCFFF7FEFCFFF730FDFFF74AFD93
:10238000FFF764FDFFF785FD0BA10C48FDF72EFF5D
:10239000FFF7B4FD0446FFF78FFDFFF7ADFD4FF0EB
:1023A000FF33012C4FF00B0204D005A10748FFF7C3
:1023B000FDFBFEE706A1F9E74F4B000020000020DF
:1023C000C1ACBDD3CAA7B0DC0D0A0000DC020020FE
:1023D000C1ACBDD3B3C9B9A60D0A000010B504A0A5
:1023E00000F00CF8BDE810406420FEF71BBB0000B5
:1023F00041542B515253543D310D0A0010B504463F
:10240000FDF718FF82B221460348FFF71FFCBDE825
:1024100010406420FEF706BB6C030020010202039B
:102420000405060708090A0B0C0D0E0F101000001A
:102430000000000000000102030406070809000074
:1024400000000102030400006824000800000020CE
:102450002000000028010008882400082000002037
:10246000F80900004401000800000000000000001E
:10247000000000000000000001000000100000004B
:082480000000000000127A00C8
:04000005080000ED02
:00000001FF
